:10000000E2C00000FCC00000FAC00000F8C0000020
:10001000F6C00000F4C00000F2C00000F0C0000014
:10002000EEC00000ECC00000EAC0000063C50000A4
:100030000AC60000E4C00000E2C00000E0C000000A
:10004000DEC00000DCC00000DAC00000D8C0000044
:10005000D6C00000D4C00000D2C00000D0C0000054
:10006000CEC00000CCC00000CAC00000C8C0000064
:10007000C6C000004803500072006F0064006900B1
:100080006B00650079007300200044004D002000E3
:100090006D0075006C0074006900660075006E00EC
:1000A0006300740069006F006E0020006B00650043
:1000B000790062006F00610072006400000032038A
:1000C00043007200650061007400690076006500FD
:1000D000200054006500630068006E006F006C0033
:1000E0006F00670079002C0020004C007400640051
:1000F00000000403090409027E00030100C0320964
:1001000004000000010100000924010001090001B0
:100110000109040100020103000007240100015A43
:100120000006240201010006240202020009240341
:100130000103010201000924030204010101000975
:1001400005040240000500000525010101090583A1
:100150000240000500000525010103090402000119
:10016000030101000921110100012240000705815E
:100170000308000512011001000000081E040028F9
:1001800001000102000105010906A101050719E0AE
:1001900029E715002501750195088102950175086B
:1001A000810105081901290595057501910295013F
:1001B00075039101150026FF000507190029FF9519
:1001C0000675088100C011241FBECFEFD4E0DEBF4A
:1001D000CDBF11E0A0E0B1E0E4E0F5E102C00590A0
:1001E0000D92AC31B107D9F721E0ACE1B1E001C02B
:1001F0001D92A53CB207E1F75AD10C94800A00CFBA
:10020000CF93DF9300D000D01F92CDB7DEB79AEA2C
:1002100099838A836B834C832D83FE0131969E01E3
:100220002A5F3F4F43E351E0E217F307F9F0819172
:10023000A091B301B091B4018C938091B3019091DE
:10024000B40101969093B4018093B301835B914014
:1002500021F45093B4014093B3019FB7F894809177
:10026000B7018F5F8093B7019FBFDECF0F900F90D4
:100270000F900F900F90DF91CF910895262F482F68
:100280006DE389E6BDCF262F482F61E289E6B8CF1E
:1002900020E0482F6CE48BE4B3CF242F462F682F47
:1002A0008DE4AECF2FB7F89483E391E09093B4013F
:1002B0008093B3019093B6018093B5012FBF80E185
:1002C00090E09093CD008093CC0086E08093CA00AC
:1002D00082E08093C80088E18093C900539A5A9ABB
:1002E000109220010895CF93DF9300D000D0CDB7B6
:1002F000DEB7BE016F5F7F4F80E191E00E943F0A51
:10030000882379F08FB7F8942091B7018FBF80E8E8
:1003100090E0821B9109049720F04C816B818A81C7
:10032000BCDF0F900F900F900F90DF91CF91089549
:10033000EBE2F1E0982F92959F7090838183628326
:100340004383BF0180E191E00E94F80980E191E0E0
:100350000C941A0A80911F018D3471F0893619F0BE
:100360008B3419F510C080911E018F33F1F4609128
:100370001C0180911D0187CF40911C0160911D01DE
:1003800080911E01D5CF80911E01803519F08235F4
:1003900031F0089580911D018093220102C01092D6
:1003A000220180911C0180932101089590912001E8
:1003B0009230A9F040F4992371F09130D1F48093F8
:1003C0001F0182E013C0933071F0943091F4809358
:1003D0001C01C0DF0EC08A3A71F481E007C080932F
:1003E0001E0183E003C080931D0184E080932001FF
:1003F00008951092200108958091C80087FF03C0DE
:100400008091CE00D3DF9FB7F8948091B7019FBF52
:10041000882301F1E091B501F091B6019191F0933B
:10042000B601E093B501E35BF14031F423E331E041
:100430003093B6012093B5012FB7F8948091B7019E
:1004400081508093B7012FBF8091C80085FFFCCFFA
:100450009093CE00089584B7877F84BF0FB6F89439
:10046000A895809160008861809360001092600080
:100470000FBE90E080E80FB6F894809361009093EF
:1004800061000FBE8AB180638AB98BB180638BB97A
:1004900009DF21C3E0DFA89578940895ADDF23DF5D
:1004A00080E191E0DCD780E091E0D2D671C5F2DF47
:1004B0006BE48FE4E3DEF2DFFECF8BB180638F7EEF
:1004C0008BB908958BB180638F7D8BB90895CF93DD
:1004D00080E091E0AAD6C82F80E191E072D7909198
:1004E000E20094609093E200CC2311F0811102C0ED
:1004F00080E201C080E19BB19063809589238BB934
:10050000CF91089580E091E05DC580910E019091BA
:100510000F01009729F0019790930F0180930E012E
:1005200008950F931F9380912101F9018083809199
:100530002201828388E090E0F8019183808380E04B
:100540001F910F910895F9018081A2CE292F3327A1
:1005500023303105E1F058F42130310599F0223093
:10056000310569F58EE790E026EF30E02CC02132AE
:10057000310501F12232310511F580E490E026E8E1
:1005800031E021C082E190E024E731E01CC09927EE
:100590008130910549F028F0029789F4E4E7F0E012
:1005A00005C0E2EFF0E002C0EEEBF0E0849190E0F5
:1005B0009F0109C089E090E024E631E004C080E0BA
:1005C00090E020E030E0FA01318320830895CF925B
:1005D000DF92EF92FF920F931F93CF93DF93EC0183
:1005E0008B017A010CD2811132C0E114F10439F08F
:1005F000F70180819181081B190BC80FD91FC12CED
:10060000D12C0115110511F18091E80085FD15C06F
:100610008091E8008E778093E800E114F10449F0BE
:10062000F70180819181C80ED91ED182C08285E0F8
:100630000EC0E5D1882329F30AC089918093F10087
:1006400001501109FFEFCF1ADF0ADBCF80E0DF9105
:10065000CF911F910F91FF90EF90DF90CF90089571
:10066000CF92DF92EF92FF920F931F93CF93DF937E
:10067000EC018B017A01C3D1811132C0E114F10484
:1006800039F0F70180819181081B190BC80FD91F20
:10069000C12CD12C0115110511F18091E80085FDC7
:1006A00015C08091E8008B778093E800E114F10495
:1006B00049F0F70180819181C80ED91ED182C08294
:1006C00085E00EC09CD1882329F30AC08091F100F7
:1006D000899301501109FFEFCF1ADF0ADBCF80E0C9
:1006E000DF91CF911F910F91FF90EF90DF90CF900E
:1006F00008952091C3013091C4012617370748F0AF
:100700006115710539F42091E8002E772093E800F7
:1007100001C0B901FC0120E06115710561F1809112
:10072000BC018823D9F18530D9F18091E80083FD9F
:1007300039C08091E80082FD2BC08091E80080FFE5
:10074000EBCF8091F20090E06115710551F0883097
:10075000910538F421912093F100615071090196BF
:10076000F3CF21E0089709F020E08091E8008E7730
:100770008093E800D1CF2111D2CF0AC08091BC0173
:10078000882361F0853061F08091E80083FD0AC024
:100790008091E80082FFF2CF80E0089582E0089522
:1007A00083E0089581E008956115710529F4209191
:1007B000E8002B772093E800FC016115710521F119
:1007C0008091BC01882341F1853041F18091E8009E
:1007D00083FD20C08091E80082FFEFCF8091F2007E
:1007E000882331F08091F100819361507109B1F754
:1007F0008091E8008B778093E800DFCF8091BC0187
:10080000882351F0853051F08091E80080FFF6CFC9
:1008100080E0089581E0089582E0089583E00895DE
:100820002091C3013091C4012617370748F06115A4
:10083000710539F42091E8002E772093E80001C07B
:10084000B901FC0120E06115710579F18091BC01CD
:10085000882309F43DC0853009F43CC08091E8004C
:1008600083FD3AC08091E80082FD2CC08091E800B1
:1008700080FFE9CF8091F20090E06115710559F099
:100880008830910540F424912093F1003196615015
:1008900071090196F2CF21E0089709F020E08091DC
:1008A000E8008E778093E800CECF2111CFCF0AC029
:1008B0008091BC01882361F0853061F08091E8006F
:1008C00083FD0AC08091E80082FFF2CF80E00895A6
:1008D00082E0089583E0089581E00895982F95308F
:1008E00068F59093E900981739F07091EC00209129
:1008F000ED005091F00003C0242F762F50E021FD31
:1009000002C09F5FECCF3091EB003E7F3093EB0055
:100910003091ED003D7F3093ED003091EB00316080
:100920003093EB007093EC002093ED005093F000B7
:100930002091EE0027FDE5CF80E008958F70809331
:10094000E90081E008950F931F93CF93DF93062F63
:10095000EC0110E0101771F19881911103C01F5F35
:100960002596F8CF2C81A981BA816B81892F8F7050
:10097000853010F080E01FC0223010F442E001C04A
:1009800046E0E8E0F0E020E0EA17FB0720F42F5F04
:10099000EE0FFF1FF9CF2295207F422B6295660F45
:1009A000660F607C991F9927991F692B97DF81112A
:1009B000D6CFE0CF81E0DF91CF911F910F910895C5
:1009C0008091BD0187FF11C08091E80082FD05C0C4
:1009D0008091BC018111F8CF11C08091E8008B7724
:1009E0000BC08091BC01882349F08091E80080FF12
:1009F000F8CF8091E8008E778093E80008952091E9
:100A0000E4003091E50095E64091EC00842F817080
:100A100040FF23C08091E80080FD1DC08091BC0193
:100A2000882399F0853099F08091EB0085FD11C005
:100A30004091E4005091E5002417350729F39150C7
:100A400011F09A01E1CF84E0089582E0089583E0F7
:100A5000089581E0089580E008954091E80042FF04
:100A6000DDCF089541D043D08091D8008F77809317
:100A7000D8008091D80080688093D8008091D800F9
:100A80008F7D8093D80084E089BD86E089BD09B45C
:100A900000FEFDCF1092BC011092B8011092BA0175
:100AA0001092B90142E060E080E018DF8091E1003F
:100AB0008E7F8093E1008091E20081608093E2006C
:100AC0008091E20088608093E2008091E0008E7F58
:100AD0008093E0000895E3E6F0E080818E7F8083DC
:100AE00081E08093BB01BECF1092E2000895109286
:100AF000E10008951F920F920FB60F9211242F93C9
:100B00003F934F935F936F937F938F939F93AF9395
:100B1000BF93EF93FF938091E10082FF0AC0809121
:100B2000E20082FF06C08091E1008B7F8093E100AC
:100B3000ECDC8091E10080FF17C08091E20080FF33
:100B400013C08091E2008E7F8093E2008091E200EA
:100B500080618093E2008091D80080628093D80009
:100B600019BC1092BC01AEDC8091E10084FF2FC063
:100B70008091E20084FF2BC084E089BD86E089BDBE
:100B800009B400FEFDCF8091D8008F7D8093D800FE
:100B90008091E1008F7E8093E1008091E2008F7E62
:100BA0008093E2008091E20081608093E200809176
:100BB000B801882311F084E007C08091E30087FD2D
:100BC00002C081E001C083E08093BC0176DC8091AB
:100BD000E10083FF27C08091E20083FF23C0809162
:100BE000E100877F8093E10082E08093BC01109256
:100BF000B8018091E1008E7F8093E1008091E20056
:100C00008E7F8093E2008091E20080618093E20019
:100C100042E060E080E062DE8091F00088608093D6
:100C2000F000B5D1FF91EF91BF91AF919F918F915E
:100C30007F916F915F914F913F912F910F900FBED8
:100C40000F901F9018951F920F920FB60F921124BC
:100C50002F933F934F935F936F937F938F939F93C4
:100C6000AF93BF93CF93DF93EF93FF93C091E900CE
:100C7000CF708091EC00D82FD17080FDD0E8109219
:100C8000E9008091F000877F8093F00078941ED077
:100C90001092E9008091F00088608093F000CD2BE5
:100CA000CF70C093E900FF91EF91DF91CF91BF9199
:100CB000AF919F918F917F916F915F914F913F91F4
:100CC0002F910F900FBE0F901F9018951F93CF93E9
:100CD000DF93CDB7DEB7AA970FB6F894DEBF0FBE8D
:100CE000CDBFEDEBF1E08091F100819321E0E53C97
:100CF000F207C9F707DC8091E80083FF30C18091DB
:100D0000BD019091BE01953009F483C030F491305B
:100D1000A9F168F0933091F122C1983009F4EFC045
:100D2000993009F4FBC0963009F019C194C080389D
:100D300021F0823809F013C108C08091B901909167
:100D4000BA01992389F082600FC08091C1018F7030
:100D5000853008F004C18093E9008091EB0085FBA9
:100D6000882780F91092E9009091E800977F90938E
:100D7000E8008093F1001092F100CCC0282F2D7F65
:100D800009F0EDC0882319F0823061F0E8C080914D
:100D9000BF01813009F0E3C0933009F080E0809317
:100DA000BA012EC08091BF0181112AC08091C1017A
:100DB0008F702FEF280F243008F0D1C08093E90006
:100DC0002091EB0020FF1CC0933021F48091EB00B8
:100DD000806214C09091EB0090619093EB0021E051
:100DE00030E0A90102C0440F551F8A95E2F74093F5
:100DF000EA001092EA008091EB0088608093EB009B
:100E00001092E9008091E800877F8093E800D8DDA8
:100E1000A6C08111A4C01091BF011F778091E3008B
:100E20008078812B8093E3008091E800877F809316
:100E3000E800C6DD8091E80080FFFCCF8091E300F0
:100E400080688093E300111102C082E001C083E05A
:100E50008093BC0184C08058823008F080C08091AB
:100E6000BF019091C0018C3D53E0950771F583E07F
:100E70008A838AE289834FB7F894DE01139620E0D3
:100E80003EE051E2E32FF0E050935700E49120FF61
:100E900003C0E295EF703F5FEF708E2F90E0EA3075
:100EA00010F0C79601C0C0968D939D932F5F24319B
:100EB00049F74FBF8091E800877F8093E8006AE29E
:100EC00070E0CE01019615DC14C06091C1017091F3
:100ED000C201AE014F5F5F4F39DBBC01892B09F4C2
:100EE0003EC09091E800977F9093E80089819A81B5
:100EF00097DC8091E8008B778093E80030C08038E1
:100F000071F58091E800877F8093E8008091B801B7
:100F10008093F1008091E8008E7777CF81111FC018
:100F20008091BF019091C00199270297C4F48091EC
:100F3000E800877F8093E8008091BF018093B8012B
:100F40003FDD8091B801811106C08091E30087FDEB
:100F500002C081E001C084E08093BC01B8DA8091D6
:100F6000E80083FF0AC08091E800877F8093E80053
:100F70008091EB0080628093EB00AA960FB6F89404
:100F8000DEBF0FBECDBFDF91CF911F9108950895B1
:100F9000CF938091BC01882399F0C091E900CF7074
:100FA0009091EC00892F817090FD80E8C82B109201
:100FB000E9008091E80083FD89DECF70C093E900ED
:100FC000CF9108956F927F928F929F92AF92BF922E
:100FD000CF92DF92EF92FF920F931F93CF93DF9305
:100FE00000D01F92CDB7DEB77C01ADB6BEB6809102
:100FF000E80083FF03C1F701808190E02091C101E7
:101000003091C2012817390709F0F8C08091BE015C
:10101000833009F49AC030F4813071F0823009F4E1
:10102000D1C0ECC08A3009F4B5C08B3009F49EC041
:10103000893009F0E3C04CC08091BD01813A09F0CC
:10104000DDC08DB69EB61A8219828091BF011091C3
:10105000C0018B83F7018085482F50E08DB79EB784
:10106000841B950B0FB6F8949EBF0FBE8DBFEDB7D6
:10107000FEB731966F0160E070E0CF013AD24FEFDA
:10108000410F8E010F5F1F4F9601BE016D5F7F4FB5
:10109000C70147DAF70186819781009721F04085E3
:1010A00050E0B6011DD21092E9008091E800877FE0
:1010B0008093E8008B8181118093F10069817A81AE
:1010C000C60117DB8091E8008B778093E80037C07A
:1010D0008091BD01813209F091C08DB69EB600911C
:1010E000C3011091C4017090BF016090C0018DB721
:1010F0009EB7801B910B0FB6F8949EBF0FBE8DBF9D
:10110000EDB7FEB731966F018091E800877F80933D
:10111000E800B801CF0148DB8091E8008E7780932A
:10112000E80021E0711001C020E030E0021B130B49
:101130002C0D3D1D4FEF460D672DC70104DA0FB68C
:10114000F8949EBE0FBE8DBE59C08091BD01813AFC
:1011500009F054C08091E800877F8093E800809177
:10116000E80080FFFCCFF701818540C08091BD0180
:10117000813209F043C08091E800877F8093E800C6
:101180001FDC9091BF0181E0911101C080E0F70167
:10119000818734C08091BD01813281F58091E80062
:1011A000877F8093E8000CDC8091BF019091C001A3
:1011B000882736E0969587953A95E1F7F701958768
:1011C00084871CC08091BD01813AC1F48091E80000
:1011D000877F8093E8008091E80080FFFCCFF701D3
:1011E0008485958596958795969587958093F1004A
:1011F0008091E8008E778093E800E2DB0FB6F894E8
:10120000BEBE0FBEADBE0F900F900F90DF91CF917D
:101210001F910F91FF90EF90DF90CF90BF90AF9014
:101220009F908F907F906F900895FC01399627E0F2
:10123000DF011D922A95E9F721E0FC01218724EFC7
:1012400031E03587248723E0248361E001967BCB5E
:101250005F926F927F928F929F92AF92BF92CF9246
:10126000DF92EF92FF920F931F93CF93DF9300D003
:101270001F92CDB7DEB77C01ADB6BEB68091BC0182
:10128000843009F086C08091E4009091E500F70178
:10129000228533852817390709F47BC081818F7037
:1012A0008093E9008091E80085FF73C08DB69EB6FB
:1012B000408550E08DB79EB7841B950B0FB6F89410
:1012C0009EBF0FBE8DBFEDB7FEB731966F011B827B
:1012D0001A82198260E070E0CF010BD18E010F5F9E
:1012E0001F4F960140E0BE016D5F7F4FC70119D9C6
:1012F000582EF70184859585892B29F011E0868584
:101300009785892B09F010E0F701668077806114DA
:10131000710481F049815A81B301C601D4D001E042
:10132000892B09F400E0F701408550E0B601C301C4
:10133000D7D001C000E089819A81892BF1F051104A
:1013400004C0011102C010FF18C0F7018485958503
:101350009787868781818F708093E9008B818111C7
:101360008093F10069817A8140E050E0C6012FD975
:101370008091E8008E778093E8008091E40090915E
:10138000E500F701938782870FB6F8949EBE0FBEE3
:101390008DBE0FB6F894BEBE0FBEADBE0F900F90BF
:1013A0000F90DF91CF911F910F91FF90EF90DF9001
:1013B000CF90BF90AF909F908F907F906F905F90F5
:1013C0000895CF93DF93EC011B8682E08C8389879D
:1013D00061E0CE010196B7DA882331F061E0CE01F9
:1013E0000696DF91CF91AFCA80E0DF91CF9108954B
:1013F0002091BC012430D1F49B01FC0181818F70CC
:101400008093E90040E050E064E070E0C901DFD87B
:1014100081110FC09091E800892F807295FD08C05E
:101420009091E8009E779093E800089582E00895F7
:1014300080E008952091BC01243079F4FC01818181
:101440008F708093E9008091F200882339F08091B9
:10145000E8008E778093E800D2CA82E00895FC010C
:101460008091BC01843051F491819F709093E90088
:101470008091E80080FF02C0CF01DCCF0895209169
:10148000BC01243011F080E00895FC0186818F704A
:101490008093E9008091E80082FFF5CF8091E80019
:1014A00085FFF1CFCB0140E050E064E070E0D8D898
:1014B0008091E80085FD05C08091E8008B778093DE
:1014C000E80081E00895FB01DC0104C08D910190EA
:1014D000801921F441505040C8F7881B990B08959A
:1014E000FB01DC0102C001900D9241505040D8F741
:1014F0000895DC0101C06D9341505040E0F708951C
:04150000F894FFCF8D
:10150400028108000001230108000000000000001F
:0C151400018340000001044000000100C1
:00000001FF
