:100000000C9462000C943B060C9414060C948A0029
:100010000C948A000C948A000C948A000C948A0038
:100020000C948A000C948A000C948A000C948A0028
:100030000C948A000C948A000C948A000C948A0018
:100040000C94CA050C948A000C9488060C946206E1
:100050000C948A000C948A000C948A000C948A00F8
:100060000C948A000C948A000000000023002600F3
:10007000290000000000240027002A0000000000E2
:10008000250028002B0004040404040404040202D4
:100090000202020203030303030301020408102007
:1000A0004080010204081020010204081020000012
:1000B0000008000201000003040700000000000027
:1000C0000000BA0611241FBECFEFD8E0DEBFCDBFBF
:1000D00011E0A0E0B1E0EAE3F3E102C005900D9287
:1000E000A03DB107D9F722E0A0EDB1E001C01D921B
:1000F000A53AB207E1F710E0C2E6D0E004C02197CC
:10010000FE010E949009C136D107C9F70E94E70697
:100110000C949B090C940000833081F028F481300A
:1001200099F08230A1F008958730A9F08830B9F0B5
:100130008430D1F4809180008F7D03C08091800055
:100140008F7780938000089584B58F7702C084B53F
:100150008F7D84BD08958091B0008F7703C080911A
:10016000B0008F7D8093B00008951F93CF93DF93ED
:10017000282F30E0F901E255FF4F8491F901E6564E
:10018000FF4FD491F901EA57FF4FC491CC23C1F03E
:10019000162F81110E948C00EC2FF0E0EE0FFF1F54
:1001A000E458FF4FA591B4919FB7F894111104C082
:1001B0008C91D095D82302C0EC91DE2BDC939FBFAD
:1001C000DF91CF911F910895CF93DF9390E0FC01D1
:1001D000E656FF4F2491FC01EA57FF4F8491882394
:1001E00061F190E0880F991FFC01EE58FF4FC59117
:1001F000D491FC01E458FF4FA591B491611109C05D
:100200009FB7F8948881209582238883EC912E23D0
:100210000BC0623061F49FB7F8948881322F30951B
:1002200083238883EC912E2B2C939FBF06C08FB71E
:10023000F894E8812E2B28838FBFDF91CF9108950A
:100240003FB7F8948091040290910502A0910602B4
:10025000B091070226B5A89B05C02F3F19F0019663
:10026000A11DB11D3FBFBA2FA92F982F8827820F3C
:10027000911DA11DB11DBC01CD0142E0660F771F8C
:10028000881F991F4A95D1F708958F929F92AF9238
:10029000BF92CF92DF92EF92FF926B017C010E949E
:1002A00020014B015C01C114D104E104F104F1F01F
:1002B0000E942001DC01CB0188199909AA09BB0918
:1002C000883E9340A105B10570F321E0C21AD10820
:1002D000E108F10888EE880E83E0981EA11CB11C8D
:1002E000C114D104E104F10419F7DDCFFF90EF90C0
:1002F000DF90CF90BF90AF909F908F90089508951A
:10030000CF92DF92EF92FF920F931F93CF93DF93E1
:100310006C017A018B01C0E0D0E0CE15DF0581F0E1
:10032000D8016D918D01D601ED91FC910190F08184
:10033000E02DC6010995892B11F02196EECF7E01A3
:10034000C701DF91CF911F910F91FF90EF90DF9048
:10035000CF900895089580E090E00895FC01538DBA
:10036000448D252F30E0842F90E0821B930B54178F
:1003700010F0CF96089501970895FC01918D828D1C
:10038000981761F0828DDF01A80FB11D5D968C91E9
:10039000928D9F5F9F73928F90E008958FEF9FEFF4
:1003A0000895FC01918D828D981731F0828DE80FB0
:1003B000F11D858D90E008958FEF9FEF0895FC016A
:1003C000918D228D892F90E0805C9F4F821B910937
:1003D0008F739927089588E092E00E94DF0121E061
:1003E000892B09F420E0822F0895FC01848DDF0120
:1003F000A80FB11DA35ABF4F2C91848D90E0019698
:100400008F739927848FA689B7892C93A089B18986
:100410008C91837080648C93938D848D981306C027
:100420000288F389E02D80818F7D80830895EF928B
:10043000FF920F931F93CF93DF93EC0181E0888F9E
:100440009B8D8C8D981305C0E889F989808185FD85
:1004500026C0F62E0B8D10E00F5F1F4F0F73112774
:10046000E02E8C8DE8120CC00FB607FCFACFE8899D
:10047000F989808185FFF5CFCE010E94F501F1CF8A
:100480008B8DFE01E80FF11DE35AFF4FF0829FB7FD
:10049000F8940B8FEA89FB89808180620AC09FB73C
:1004A000F894EE89FF896083E889F98980818370F7
:1004B000806480839FBF81E090E0DF91CF911F91A6
:1004C0000F91FF90EF900895CF93DF93EC01888D0B
:1004D0008823C9F0EA89FB89808185FD05C0A88948
:1004E000B9898C9186FD0FC00FB607FCF5CF8081CE
:1004F00085FFF2CFA889B9898C9185FFEDCFCE0118
:100500000E94F501E7CFDF91CF91089580E090E060
:10051000892B29F00E94EB0181110C9400000895B1
:10052000CF93DF9300D000D01F92CDB7DEB79AEA09
:1005300099838A836B834C832D8345E050E0BE0111
:100540006F5F7F4F88E092E00E9480010F900F90D4
:100550000F900F900F90DF91CF910895482F880F43
:10056000550B405C5F4F517020E060EE8DE40C94C1
:10057000900220E4482F60E88DE40C949002262F2E
:10058000482F60E98DE40C949002262F482F60E5F7
:100590008BE40C9490022091DA019091DF0180911C
:1005A000DD014091DE0138E0239FB001112454E0C9
:1005B000959F90011124262B242B880F822B0895C0
:1005C0000F931F93CF93DF9329B13091D801332339
:1005D00009F46EC08091D6019091D7010196909355
:1005E000D7018093D6018091D6019091D7018A30AE
:1005F000910544F48230910564F4019709F0BEC17D
:1006000060E018C08B309105E9F094F00C9741F14F
:10061000B5C1C091D5016C2F61708091E5010E9438
:10062000B5008C2F90E0959587958093D501A6C154
:100630006091D3018091E501DF91CF911F910F91DE
:100640000C94B500C091E50161E08C2F0E94B500CB
:1006500060E08C2FDF91CF911F910F910C94E400FB
:100660002091E5013091E6013327F901E255FF4F72
:100670008491F901E656FF4FD491F901EA57FF4FF3
:10068000C491CC2379F081110E948C00EC2FF0E012
:10069000EE0FFF1FE859FF4FA591B491EC91ED23A8
:1006A00081E009F480E08093D4011092D80166C102
:1006B00024FB882780F92091E001211103C08130BB
:1006C00009F45CC12091E001222329F02091E0018E
:1006D0002B3008F436C18091E0018F5F8093E001F8
:1006E0008091E0018B3009F049C1E091F701F09170
:1006F000F801309719F08091E20109958091D901B4
:10070000882309F495C08091D901813309F048C04C
:100710008091D201811135C01091E201103F09F49E
:100720004BC08FEC810F8F33F8F4C091E701D0916B
:10073000E801209709F474C0812F90E0A0E0B0E0B8
:100740009C01AD012153310941095109AEE7B0E0E7
:100750000E9454092EE330E040E050E00E94350949
:1007600081EC820FFE015BC0C091EF01D091F001DE
:10077000209709F455C00E94CB02682F812FFE01FB
:100780003DC08091DB01882309F44AC0E091ED016E
:10079000F091EE01309709F443C08091E2013FC02F
:1007A0008091D9018135A1F58091D20181110BC0D1
:1007B0008091E201803F21F481E08093DB0132C02F
:1007C0008093D1012FC08091D2018130C9F48091F2
:1007D000DB01882349F0E091E901F091EA013097CB
:1007E000F9F08091D1011BC0E091EB01F091EC0197
:1007F0003097B1F08091D1016091E201099510C06C
:10080000E091F501F091F601309751F088E507C0CD
:10081000E091F501F091F601309711F086E4099529
:100820001092D9018091D2018F5F8093D20184C050
:10083000C091E201CA3AC9F180F4C43109F44BC055
:1008400030F4C13109F440C0C231B9F158C0C835E3
:1008500009F448C0C93589F152C0CA3F31F158F492
:10086000C03E39F1C03F09F04AC081E08093DB010E
:100870001092DC0161C0CC3F08F441C0CE3F58F07B
:10088000CE3FE9F51092F9011092D8011092D701EC
:100890001092D60151C0E091F501F091F601309728
:1008A00009F44AC083E5099547C081E08093F901C6
:1008B00043C081E08093DC013FC09091DB0181E087
:1008C00089278093DF014EC09091DB0181E0892769
:1008D0008093DD0147C09091DB0181E089278093FF
:1008E000DE0140C08091DB0181113CC09091DA01B2
:1008F00081E089278093DA01C093E1011DC08091D6
:10090000DC01882321F0C13549F1C13339F18091EF
:10091000DB0181112AC00091F3011091F40101154E
:10092000110531F00E94CB02682F8C2FF801099538
:100930008091E2018093E1011092E2011092E001C6
:100940001DC02091E001215001C0880F2A95EAF7CF
:100950009091E201892B8093E201BDCEC093D90131
:100960001092D2011092DB01E7CFE091F101F091FA
:10097000F2013097B9F38C2F0995F4CFDF91CF9125
:100980001F910F910895CF93C82F0E94CB02282F5B
:100990004C2F62E58BE4CF910C9490021F93CF9380
:1009A000DF93162F91E09093D8011092D701109207
:1009B000D6018093D5019093D40148E050E021E026
:1009C00030E080FF02C02F5F3F4F869541505109B4
:1009D000C1F721702093D301D091E50161E08D2F03
:1009E0000E94B50061E08D2F0E94E400C091E301F8
:1009F00061E08C2F0E94E40060E08C2F0E94B50023
:100A00008BEE90E00197F1F760E08D2F0E94B5002A
:100A100061E08C2F0E94B50060E08C2F0E94E40002
:100A2000112331F08091D4018111FCCF1092D801B3
:100A3000DF91CF911F910895009769F0FC0101901B
:100A40000020E9F73197AF01481B590BBC0188E042
:100A500092E00C94800180E090E008950C941C05D5
:100A6000CF93DF930E941C05EC0186E191E00E9488
:100A70001C058C0F9D1FDF91CF910895CF93C82F38
:100A800089E191E00E942E056C2F88E092E00E949F
:100A9000170286E191E0CF910C941C050F931F93F0
:100AA000CF93DF93CDB7DEB7A1970FB6F894DEBF33
:100AB0000FBECDBF482F50E060E070E019A2CE011C
:100AC00081968A019B010F7011272227332724E08A
:100AD00076956795579547952A95D1F701970A30EE
:100AE00014F4005D01C0095CFC010083411551054F
:100AF0006105710531F70E941C05A1960FB6F894A7
:100B0000DEBF0FBECDBFDF91CF911F910F91089532
:100B1000CF93DF930E944E05EC0186E191E00E94A5
:100B20001C058C0F9D1FDF91CF9108950C948805B3
:100B3000CF93C82F80E291E00E942E058C2FCF9199
:100B40000C948805CF93DF93D82FC62F8CE291E0C9
:100B50000E942E058D2F0E948805DC37B1F486E3B4
:100B600091E00E942E058CE70E944E0586E491E0FC
:100B70000E942E058C2F0E9488052C2F4CE76FE3D6
:100B800089E6DF91CF910C949002DF91CF91089587
:100B90000E9496091F920F920FB60F9211242F9365
:100BA0003F938F939F93AF93BF9380910002909157
:100BB0000102A0910202B09103023091FF0123E0F3
:100BC000230F2D3720F40196A11DB11D05C026E885
:100BD000230F0296A11DB11D2093FF0180930002F7
:100BE00090930102A0930202B09303028091040249
:100BF00090910502A0910602B09107020196A11DF5
:100C0000B11D8093040290930502A0930602B09355
:100C10000702BF91AF919F918F913F912F910F90BC
:100C20000FBE0F901F9018951F920F920FB60F9244
:100C300011242F933F934F935F936F937F938F93E1
:100C40009F93AF93BF93EF93FF93E0910201F091D5
:100C500003010995FF91EF91BF91AF919F918F9102
:100C60007F916F915F914F913F912F910F900FBEA8
:100C70000F901F9018951F920F920FB60F9211248C
:100C80002F933F934F935F936F937F938F939F9394
:100C9000AF93BF93EF93FF93E0910001F0910101B7
:100CA0000995FF91EF91BF91AF919F918F917F91A6
:100CB0006F915F914F913F912F910F900FBE0F90C9
:100CC0001F9018951F920F920FB60F9211242F9319
:100CD0003F934F935F936F937F938F939F93AF93C4
:100CE000BF93EF93FF9388E092E00E94F501FF919C
:100CF000EF91BF91AF919F918F917F916F915F9194
:100D00004F913F912F910F900FBE0F901F9018950C
:100D10001F920F920FB60F9211242F938F939F93D0
:100D2000EF93FF93E0911802F09119028081E09116
:100D30001E02F0911F0282FD12C09081809121025B
:100D40008F5F8F7320912202821751F0E091210270
:100D5000F0E0E85FFD4F958F8093210201C0808114
:100D6000FF91EF919F918F912F910F900FBE0F9058
:100D70001F901895E8E0F2E01382128288EE93E06B
:100D8000A0E0B0E084839583A683B78388E091E0F8
:100D90009183808385EC90E09587848784EC90E054
:100DA0009787868780EC90E0918B808B81EC90E038
:100DB000938B828B82EC90E0958B848B86EC90E019
:100DC000978B868B118E128E138E148E08957894C5
:100DD00084B5826084BD84B5816084BD85B5826040
:100DE00085BD85B5816085BD80916E0081608093F1
:100DF0006E0010928100809181008260809381005A
:100E00008091810081608093810080918000816069
:100E1000809380008091B10084608093B1008091C4
:100E2000B00081608093B00080917A0084608093EC
:100E30007A0080917A00826080937A0080917A00B3
:100E4000816080937A0080917A00806880937A0034
:100E50001092C100E0911802F091190282E08083A3
:100E6000E0911402F09115021082E0911602F091C7
:100E7000170280E1808310922002E0911C02F09121
:100E80001D0286E08083E0911A02F0911B028081AE
:100E900080618083E0911A02F0911B02808188605A
:100EA0008083E0911A02F0911B0280818068808328
:100EB000E0911A02F0911B0280818F7D808388E48B
:100EC00091E00E94300561E08DE00E94E40061E065
:100ED0008DE00E94B50086E995E09093F80180933B
:100EE000F7018EE395E09093F6018093F50110925F
:100EF000F4011092F3011092F2011092F10110929C
:100F0000F0011092EF011092EE011092ED0110929B
:100F1000EC011092EB011092EA011092E90110929B
:100F2000E8011092E70183E090E09093E401809360
:100F3000E30184E090E09093E6018093E501109254
:100F4000E2011092E1011092E0011092DF01109293
:100F5000DE011092DD011092DC011092DB01109293
:100F6000DA011092D9011092D8011092D701109293
:100F7000D6011092D50181E08093D40160E083E036
:100F80000E94E40060E084E00E94E40060E084E00D
:100F90000E94B50060E083E00E94B50080EE92E020
:100FA000909303018093020180916900837F8860A0
:100FB00080936900E99A6AE070E080E090E00E9426
:100FC0004501D091E50161E08D2F0E94B500C091EF
:100FD000E30160E08C2F0E94B5006AE070E080E0E1
:100FE00090E00E94450161E08D2F0E94B50061E014
:100FF00070E080E090E00E94450161E08C2F0E944B
:10100000B5006AE070E080E090E00E94450160E099
:101010008FEF0E94CE048BE891E00197F1F764EF27
:1010200071E080E090E00E94450188E591E00E9437
:101030002E05C5E0D0E080E691E00E942E0560E03C
:1010400081EF0E94CE0468EC70E080E090E00E94A6
:101050004501219781F785E691E00E9430058AE7F6
:1010600091E00E942E0560E088EE0E94CE0462E3CB
:1010700070E080E090E00E9445018AE791E00E94E4
:101080002E0560E088EE0E94CE0462E370E080E00E
:1010900090E00E9445018FE791E00E942E0510929A
:1010A000F90161E084EE0E94CE048091F901882369
:1010B000E1F31092F90161E085E10E94CE04809194
:1010C000F9018823E1F364E670E080E090E00E949B
:1010D00045011092F8011092F7018EE395E090938C
:1010E000F6018093F50185EC92E09093F4018093F2
:1010F000F30183EC94E09093F2018093F10182EA92
:1011000095E09093F0018093EF0188E995E090934A
:10111000EE018093ED018FEB92E09093EC018093D0
:10112000EB0189EB92E09093EA018093E9018EEA6A
:1011300092E09093E8018093E70160E08DE00E94E7
:10114000B5008FE891E00E943005C3E0D4E012E0E2
:1011500088E092E00E94DF01892B09F483C088E0D7
:1011600092E00E94BD019091FE019230B9F050F4DE
:10117000992369F0913009F073C08093FD011093B9
:10118000FE0170C0933079F0943091F069C08A3AD2
:1011900009F068C081E08093FE0164C08093FC0187
:1011A000C093FE015FC08093FB01D093FE015AC043
:1011B0008093FA019091FD019D34E9F0993621F078
:1011C0009B3409F04DC030C09091FC019D3341F03B
:1011D0009F3349F0913209F043C086EA91E015C08F
:1011E00086E991E012C0282F4091FB0161E289E677
:1011F0000E94900235C084EB91E00E942E05809100
:10120000FC010E944E0586E491E00E942E0580912B
:10121000FB010E944E0586E491E00E942E0580911C
:10122000FA010E9488051CC08091FC018C34C1F435
:1012300082EC91E00E942E058091FB010E948805BE
:101240000091FB011092F90161E08DEE0E94CE0445
:101250008091F9018823E1F361E0802F0E94CE04A0
:101260001092FE010E94860273CF052E97FB1EF49A
:1012700000940E944C0957FD07D00E945F0907FCAB
:1012800003D04EF40C944C0950954095309521951F
:101290003F4F4F4F5F4F08959095809570956195A2
:1012A0007F4F8F4F9F4F08950E948109A59F900DFA
:1012B000B49F900DA49F800D911D11240895A1E26B
:1012C0001A2EAA1BBB1BFD010DC0AA1FBB1FEE1FC0
:1012D000FF1FA217B307E407F50720F0A21BB30B0B
:1012E000E40BF50B661F771F881F991F1A9469F787
:1012F00060957095809590959B01AC01BD01CF01E3
:101300000895A29FB001B39FC001A39F700D811DDE
:101310001124911DB29F700D811D1124911D0895FE
:10132000EE0FFF1F0590F491E02D099481E090E00D
:0A133000F8940C949B09F894FFCF89
:10133A007F017F010000000017028001AE016402F4
:10134A00DF01BD01D1010D0A004572726F723A00C8
:10135A0046756E6352656C656173650046756E63AA
:10136A005072657373004170702073656E647320E8
:10137A0070696E673A002C005053324B6579626F80
:10138A00617264457874320049646C652E2E2E00B1
:10139A005B46315D00496E69742050726F64694B17
:1013AA0065797320444D2E2E2E005B45385D005220
:1013BA006573756D65205B45345D5B31355D005243
:1013CA00656164792E0041707020676F74207374B0
:1013DA00617475733A0041707020676F7420706F82
:1013EA006E673A0041707020676F74204D49444916
:1013FA003A0041707020676F74204C4544733A007C
:107E0000112484B714BE81FFF0D085E080938100F7
:107E100082E08093C00088E18093C10086E0809377
:107E2000C20080E18093C4008EE0C9D0259A86E02C
:107E300020E33CEF91E0309385002093840096BBD3
:107E4000B09BFECF1D9AA8958150A9F7CC24DD24C4
:107E500088248394B5E0AB2EA1E19A2EF3E0BF2EE7
:107E6000A2D0813461F49FD0082FAFD0023811F036
:107E7000013811F484E001C083E08DD089C08234E0
:107E800011F484E103C0853419F485E0A6D080C0E4
:107E9000853579F488D0E82EFF2485D0082F10E0AE
:107EA000102F00270E291F29000F111F8ED06801E7
:107EB0006FC0863521F484E090D080E0DECF843638
:107EC00009F040C070D06FD0082F6DD080E0C81688
:107ED00080E7D80618F4F601B7BEE895C0E0D1E017
:107EE00062D089930C17E1F7F0E0CF16F0E7DF06D8
:107EF00018F0F601B7BEE89568D007B600FCFDCFD4
:107F0000A601A0E0B1E02C9130E011968C91119780
:107F100090E0982F8827822B932B1296FA010C0160
:107F200087BEE89511244E5F5F4FF1E0A038BF0790
:107F300051F7F601A7BEE89507B600FCFDCF97BE46
:107F4000E89526C08437B1F42ED02DD0F82E2BD052
:107F50003CD0F601EF2C8F010F5F1F4F84911BD097
:107F6000EA94F801C1F70894C11CD11CFA94CF0C13
:107F7000D11C0EC0853739F428D08EE10CD085E9AC
:107F80000AD08FE07ACF813511F488E018D01DD067
:107F900080E101D065CF982F8091C00085FFFCCF94
:107FA0009093C60008958091C00087FFFCCF809118
:107FB000C00084FD01C0A8958091C6000895E0E648
:107FC000F0E098E1908380830895EDDF803219F02E
:107FD00088E0F5DFFFCF84E1DECF1F93182FE3DFCA
:107FE0001150E9F7F2DF1F91089580E0E8DFEE27F6
:047FF000FF270994CA
:027FFE00040479
:0400000300007E007B
:00000001FF
