:100000000C9462000C9460060C9439060C948A00DF
:100010000C948A000C948A000C948A000C948A0038
:100020000C948A000C948A000C948A000C948A0028
:100030000C948A000C948A000C948A000C948A0018
:100040000C94EF050C948A000C94AD060C94870672
:100050000C948A000C948A000C948A000C948A00F8
:100060000C948A000C948A000000000023002600F3
:10007000290000000000240027002A0000000000E2
:10008000250028002B0004040404040404040202D4
:100090000202020203030303030301020408102007
:1000A0004080010204081020010204081020000012
:1000B0000008000201000003040700000000000027
:1000C0000000DF0611241FBECFEFD8E0DEBFCDBF9A
:1000D00012E0A0E0B1E0EEE8F3E102C005900D927D
:1000E000A234B107D9F723E0A2E4B2E001C01D9227
:1000F000A731B207E1F710E0C2E6D0E004C02197D3
:10010000FE010E94BA09C136D107C9F70E940C0747
:100110000C94C5090C940000833081F028F48130E0
:1001200099F08230A1F008958730A9F08830B9F0B5
:100130008430D1F4809180008F7D03C08091800055
:100140008F7780938000089584B58F7702C084B53F
:100150008F7D84BD08958091B0008F7703C080911A
:10016000B0008F7D8093B00008951F93CF93DF93ED
:10017000282F30E0F901E255FF4F8491F901E6564E
:10018000FF4FD491F901EA57FF4FC491CC23C1F03E
:10019000162F81110E948C00EC2FF0E0EE0FFF1F54
:1001A000E458FF4FA591B4919FB7F894111104C082
:1001B0008C91D095D82302C0EC91DE2BDC939FBFAD
:1001C000DF91CF911F910895CF93DF9390E0FC01D1
:1001D000E656FF4F2491FC01EA57FF4F8491882394
:1001E00061F190E0880F991FFC01EE58FF4FC59117
:1001F000D491FC01E458FF4FA591B491611109C05D
:100200009FB7F8948881209582238883EC912E23D0
:100210000BC0623061F49FB7F8948881322F30951B
:1002200083238883EC912E2B2C939FBF06C08FB71E
:10023000F894E8812E2B28838FBFDF91CF9108950A
:100240003FB7F8948091760290917702A09178025E
:10025000B091790226B5A89B05C02F3F19F00196F1
:10026000A11DB11D3FBFBA2FA92F982F8827820F3C
:10027000911DA11DB11DBC01CD0142E0660F771F8C
:10028000881F991F4A95D1F708958F929F92AF9238
:10029000BF92CF92DF92EF92FF926B017C010E949E
:1002A00020014B015C01C114D104E104F104F1F01F
:1002B0000E942001DC01CB0188199909AA09BB0918
:1002C000883E9340A105B10570F321E0C21AD10820
:1002D000E108F10888EE880E83E0981EA11CB11C8D
:1002E000C114D104E104F10419F7DDCFFF90EF90C0
:1002F000DF90CF90BF90AF909F908F90089508951A
:10030000CF92DF92EF92FF920F931F93CF93DF93E1
:100310006C017A018B01C0E0D0E0CE15DF0581F0E1
:10032000D8016D918D01D601ED91FC910190F08184
:10033000E02DC6010995892B11F02196EECF7E01A3
:10034000C701DF91CF911F910F91FF90EF90DF9048
:10035000CF900895089580E090E00895FC01538DBA
:10036000448D252F30E0842F90E0821B930B54178F
:1003700010F0CF96089501970895FC01918D828D1C
:10038000981761F0828DDF01A80FB11D5D968C91E9
:10039000928D9F5F9F73928F90E008958FEF9FEFF4
:1003A0000895FC01918D828D981731F0828DE80FB0
:1003B000F11D858D90E008958FEF9FEF0895FC016A
:1003C000918D228D892F90E0805C9F4F821B910937
:1003D0008F73992708958AE792E00E94DF0121E058
:1003E000892B09F420E0822F0895FC01848DDF0120
:1003F000A80FB11DA35ABF4F2C91848D90E0019698
:100400008F739927848FA689B7892C93A089B18986
:100410008C91837080648C93938D848D981306C027
:100420000288F389E02D80818F7D80830895EF928B
:10043000FF920F931F93CF93DF93EC0181E0888F9E
:100440009B8D8C8D981305C0E889F989808185FD85
:1004500026C0F62E0B8D10E00F5F1F4F0F73112774
:10046000E02E8C8DE8120CC00FB607FCFACFE8899D
:10047000F989808185FFF5CFCE010E94F501F1CF8A
:100480008B8DFE01E80FF11DE35AFF4FF0829FB7FD
:10049000F8940B8FEA89FB89808180620AC09FB73C
:1004A000F894EE89FF896083E889F98980818370F7
:1004B000806480839FBF81E090E0DF91CF911F91A6
:1004C0000F91FF90EF900895CF93DF93EC01888D0B
:1004D0008823C9F0EA89FB89808185FD05C0A88948
:1004E000B9898C9186FD0FC00FB607FCF5CF8081CE
:1004F00085FFF2CFA889B9898C9185FFEDCFCE0118
:100500000E94F501E7CFDF91CF91089580E090E060
:10051000892B29F00E94EB0181110C9400000895B1
:10052000982F817091FD846092FD82600895CF9331
:10053000DF9300D000D01F92CDB7DEB79AEA99833F
:100540008A836B834C832D8345E050E0BE016F5F4F
:100550007F4F8AE792E00E9480010F900F900F90EA
:100560000F900F90DF91CF910895482F880F550B72
:10057000405C5F4F517020E060EE8DE40C94970278
:1005800020E4482F60E88DE40C949702262F482F32
:1005900060E98DE40C949702CF938D50813730F44D
:1005A000E82FF0E0EC5FFE4FC08101C0C0E0842F77
:1005B0000E949002282F4C2F60E58BE4CF910C9481
:1005C000970220914C029091510280914F024091EC
:1005D000500238E0239FB001112454E0959F900110
:1005E0001124262B242B880F822B08950F931F9301
:1005F000CF93DF9329B130914A02332309F46EC0BF
:10060000809148029091490201969093490280930B
:10061000480280914802909149028A30910544F441
:100620008230910564F4019709F0C2C160E018C0FE
:100630008B309105E9F094F00C9741F1B9C1C0916C
:1006400047026C2F6170809157020E94B5008C2F79
:1006500090E09595879580934702AAC160914502E5
:1006600080915702DF91CF911F910F910C94B500AB
:10067000C091570261E08C2F0E94B50060E08C2F82
:10068000DF91CF911F910F910C94E40020915702BC
:10069000309158023327F901E255FF4F8491F90157
:1006A000E656FF4FD491F901EA57FF4FC491CC238E
:1006B00079F081110E948C00EC2FF0E0EE0FFF1F0B
:1006C000E859FF4FA591B491EC91ED2381E009F435
:1006D00080E08093460210924A026AC124FB882778
:1006E00080F920915202211103C0813009F460C1C8
:1006F00020915202222329F0209152022B3008F43B
:1007000038C1809152028F5F8093520280915202D1
:100710008B3009F04DC1E0916902F0916A02309787
:1007200019F080915402099580914B02882309F4B5
:1007300095C080914B02813309F048C080914402FA
:10074000811135C010915402103F09F44BC08FEC59
:10075000810F8F33F8F4C0915902D0915A0220973B
:1007600009F474C0812F90E0A0E0B0E09C01AD01DD
:100770002153310941095109AEE7B0E00E947E09D9
:100780002EE330E040E050E00E945F0981EC820FF0
:10079000FE015BC0C0916102D0916202209709F412
:1007A00055C00E94E102682F812FFE013DC080915B
:1007B0004D02882309F44AC0E0915F02F091600283
:1007C000309709F443C0809154023FC080914B029E
:1007D0008135A1F58091440281110BC080915402B2
:1007E000803F21F481E080934D0232C08093430228
:1007F0002FC0809144028130C9F480914D0288233A
:1008000049F0E0915B02F0915C023097F9F0809141
:1008100043021BC0E0915D02F0915E023097B1F09F
:100820008091430260915402099510C0E0916702E3
:10083000F0916802309751F088E507C0E0916702B7
:10084000F0916802309711F086E4099510924B02FE
:10085000809144028F5F8093440286C0C09154020D
:10086000CA3AC9F180F4C43109F44BC030F4C13143
:1008700009F440C0C231B9F158C0C83509F448C0C4
:10088000C93589F152C0CA3F31F158F4C03E39F13F
:10089000C03F09F04AC081E080934D0210924E02A1
:1008A00063C0CC3F08F441C0CE3F58F0CE3FE9F5DD
:1008B00010926B0210924A02109249021092480262
:1008C00053C0E0916702F0916802309709F44CC080
:1008D00083E5099549C081E080936B0245C081E0C2
:1008E00080934E0241C090914D0281E08927809310
:1008F000510250C090914D0281E0892780934F02B0
:1009000049C090914D0281E089278093500242C0F6
:1009100080914D0281113EC090914C0281E0892767
:1009200080934C02C09353021FC080914E028823D3
:1009300021F0C13559F1C13349F180914D02811146
:100940002CC000916502109166020115110541F05D
:100950000E94E10260914E02482F8C2FF801099508
:1009600080915402809353021092540210925202CA
:100970001FC020915202215001C0880F2A95EAF72A
:1009800090915402892B80935402BBCEC0934B02AA
:100990001092440210924D02E7CFE0916302F09171
:1009A00064023097B9F360914E028C2F0995F2CF13
:1009B000DF91CF911F910F910895CF938D50813783
:1009C00030F4E82FF0E0EC5FFE4FC08101C0C0E0E2
:1009D0000E94E1020E949002282F4C2F62E58BE4D6
:1009E000CF910C9497021F93CF93DF93162F91E032
:1009F00090934A0210924902109248028093470253
:100A00009093460248E050E021E030E080FF02C0D1
:100A10002F5F3F4F869541505109C1F721702093B8
:100A20004502D091570261E08D2F0E94B50061E030
:100A30008D2F0E94E400C091550261E08C2F0E942E
:100A4000E40060E08C2F0E94B5008BEE90E00197EF
:100A5000F1F760E08D2F0E94B50061E08C2F0E94BD
:100A6000B50060E08C2F0E94E400112331F08091EA
:100A700046028111FCCF10924A02DF91CF911F9163
:100A80000895009769F0FC0101900020E9F7319783
:100A9000AF01481B590BBC018AE792E00C9480011E
:100AA00080E090E008950C944105CF93DF930E947D
:100AB0004105EC0187E891E00E9441058C0F9D1FE4
:100AC000DF91CF910895CF93C82F8AE891E00E94DB
:100AD00053056C2F8AE792E00E94170287E891E0A5
:100AE000CF910C9441050F931F93CF93DF93CDB714
:100AF000DEB7A1970FB6F894DEBF0FBECDBF482F6B
:100B000050E060E070E019A2CE0181968A019B015D
:100B10000F7011272227332724E076956795579584
:100B200047952A95D1F701970A3014F4005D01C06A
:100B3000095CFC010083411551056105710531F720
:100B40000E944105A1960FB6F894DEBF0FBECDBF3F
:100B5000DF91CF911F910F910895CF93DF930E9462
:100B60007305EC0187E891E00E9441058C0F9D1F01
:100B7000DF91CF9108950C94AD05CF93C82F81E9F3
:100B800091E00E9453058C2FCF910C94AD05CF932B
:100B9000DF93D82FC62F8DE991E00E9453058D2F4A
:100BA0000E94AD05DC37B1F487EA91E00E9453055D
:100BB0008CE70E94730587EB91E00E9453058C2F10
:100BC0000E94AD052C2F4CE76FE389E6DF91CF91B2
:100BD0000C949702DF91CF9108950E94C0091F9253
:100BE0000F920FB60F9211242F933F938F939F93E1
:100BF000AF93BF938091720290917302A09174029F
:100C0000B09175023091710223E0230F2D3720F44B
:100C10000196A11DB11D05C026E8230F0296A11D56
:100C2000B11D209371028093720290937302A0937E
:100C30007402B09375028091760290917702A09130
:100C40007802B09179020196A11DB11D80937602C0
:100C500090937702A0937802B0937902BF91AF91FD
:100C60009F918F913F912F910F900FBE0F901F90EA
:100C700018951F920F920FB60F9211242F933F9346
:100C80004F935F936F937F938F939F93AF93BF9394
:100C9000EF93FF93E0910201F09103010995FF9119
:100CA000EF91BF91AF919F918F917F916F915F91E4
:100CB0004F913F912F910F900FBE0F901F9018955D
:100CC0001F920F920FB60F9211242F933F934F93C1
:100CD0005F936F937F938F939F93AF93BF93EF93A4
:100CE000FF93E0910001F09101010995FF91EF91CF
:100CF000BF91AF919F918F917F916F915F914F9134
:100D00003F912F910F900FBE0F901F9018951F923B
:100D10000F920FB60F9211242F933F934F935F932F
:100D20006F937F938F939F93AF93BF93EF93FF93B3
:100D30008AE792E00E94F501FF91EF91BF91AF9198
:100D40009F918F917F916F915F914F913F912F91E3
:100D50000F900FBE0F901F9018951F920F920FB615
:100D60000F9211242F938F939F93EF93FF93E09112
:100D70008A02F0918B028081E0919002F0919102C1
:100D800082FD12C09081809193028F5F8F732091BA
:100D90009402821751F0E0919302F0E0E658FD4F83
:100DA000958F8093930201C08081FF91EF919F9175
:100DB0008F912F910F900FBE0F901F901895EAE71B
:100DC000F2E01382128288EE93E0A0E0B0E0848328
:100DD0009583A683B78389E791E09183808385EC2F
:100DE00090E09587848784EC90E09787868780ECF5
:100DF00090E0918B808B81EC90E0938B828B82ECE6
:100E000090E0958B848B86EC90E0978B868B118E8F
:100E1000128E138E148E0895789484B5826084BDEA
:100E200084B5816084BD85B5826085BD85B58160EE
:100E300085BD80916E00816080936E00109281006C
:100E40008091810082608093810080918100816027
:100E500080938100809180008160809380008091E8
:100E6000B10084608093B1008091B0008160809374
:100E7000B00080917A00846080937A0080917A003B
:100E8000826080937A0080917A00816080937A00FA
:100E900080917A00806880937A001092C100E0917E
:100EA0008A02F0918B0282E08083E0918602F091C9
:100EB00087021082E0918802F091890280E18083AC
:100EC00010929202E0918E02F0918F0286E0808370
:100ED000E0918C02F0918D02808180618083E091AD
:100EE0008C02F0918D02808188608083E0918C0279
:100EF000F0918D02808180688083E0918C02F09176
:100F00008D0280818F7D808389EB91E00E94550561
:100F100061E08DE00E94E40061E08DE00E94B50098
:100F20008BEB95E090936A028093690283E695E0EB
:100F30009093680280936702109266021092650295
:100F40001092640210926302109262021092610287
:100F50001092600210925F0210925E0210925D0287
:100F600010925C0210925B0210925A021092590287
:100F700083E090E0909356028093550284E090E0E5
:100F80009093580280935702109254021092530289
:100F900010925202109251021092500210924F027F
:100FA00010924E0210924D0210924C0210924B027F
:100FB00010924A021092490210924802109247027F
:100FC00081E08093460260E083E00E94E40060E0FC
:100FD00084E00E94E40060E084E00E94B50060E0EC
:100FE00083E00E94B50086EF92E090930301809326
:100FF000020180916900837F886080936900E99A8B
:101000006AE070E080E090E00E944501D0915702D4
:1010100061E08D2F0E94B500C091550260E08C2FD9
:101020000E94B5006AE070E080E090E00E94450117
:1010300061E08D2F0E94B50061E070E080E090E0FB
:101040000E94450161E08C2F0E94B5006AE070E0CB
:1010500080E090E00E94450160E08FEF0E94F30481
:101060008BE891E00197F1F764EF71E080E090E0A8
:101070000E94450189EC91E00E945305C5E0D0E053
:1010800081ED91E00E94530560E081EF0E94F3043E
:1010900068EC70E080E090E00E944501219781F7C4
:1010A00086ED91E00E9455058BEE91E00E9453057C
:1010B00060E088EE0E94F30462E370E080E090E07C
:1010C0000E9445018BEE91E00E94530560E088EE9E
:1010D0000E94F30462E370E080E090E00E9445012A
:1010E00080EF91E00E94530510926B0261E084EE64
:1010F0000E94F30480916B028823E1F310926B024B
:1011000061E085E10E94F30480916B028823E1F3A2
:1011100064E670E080E090E00E94450110926A026F
:101120001092690283E695E09093680280936702CB
:101130008CEC92E090936602809365028DED94E0D2
:10114000909364028093630287EC95E0909362022F
:10115000809361028DEB95E09093600280935F0233
:1011600086EC92E090935E0280935D0280EC92E0C8
:1011700090935C0280935B0285EB92E090935A021D
:101180008093590260E08DE00E94B50080E092E01B
:101190000E945505D3E014E002E08AE792E00E9445
:1011A000DF01892B09F488C08AE792E00E94BD0123
:1011B000909170029230B9F050F4992369F0913017
:1011C00009F078C080936F020093700275C093306D
:1011D00079F0943091F06EC08A3A09F06DC081E0E8
:1011E0008093700269C080936E02D093700264C0D5
:1011F00080936D02109370025FC080936C02909197
:101200006F029D34E9F0993621F09B3409F052C009
:1012100030C090916E029D3341F09F3349F091327E
:1012200009F048C087E192E015C087E092E012C063
:10123000282F40916D0261E289E60E9497023AC030
:1012400085E292E00E94530580916E020E94730530
:1012500087EB91E00E94530580916D020E94730517
:1012600087EB91E00E94530580916C020E94AD05CE
:1012700021C080916E028C34E9F483E392E00E94F5
:10128000530580916D020E94AD0580916D0281FF32
:1012900002C0C4E001C0C0E010926B0261E08DEEBC
:1012A0000E94F30480916B028823E1F361E08C2FAC
:1012B0000E94F304109270020E9486026ECF052EE7
:1012C00097FB1EF400940E94760957FD07D00E94F8
:1012D000890907FC03D04EF40C947609509540958B
:1012E000309521953F4F4F4F5F4F089590958095D2
:1012F000709561957F4F8F4F9F4F08950E94AB0966
:10130000A59F900DB49F900DA49F800D911D112459
:101310000895A1E21A2EAA1BBB1BFD010DC0AA1F36
:10132000BB1FEE1FFF1FA217B307E407F50720F04E
:10133000A21BB30BE40BF50B661F771F881F991FC9
:101340001A9469F760957095809590959B01AC0112
:10135000BD01CF010895A29FB001B39FC001A39F1B
:10136000700D811D1124911DB29F700D811D1124DE
:10137000911D0895EE0FFF1F0590F491E02D099443
:0E13800081E090E0F8940C94C509F894FFCF3A
:10138E007F017F012B00000000000000141E0000F2
:10139E00001D16041A1F0000061B0708212000005E
:1013AE002C1909171522000011050B0A1C23000029
:1013BE0000100D1824250000360E0C1227260000F2
:1013CE0037380F00132D00000000002F2E000000F4
:1013DE00002830000000000000000000002A00007D
:1013EE0059005C5F00000062635A5D5E6029000078
:1013FE00575B5655610000000017028001AE016474
:10140E0002DF01BD01D1010D0A004572726F723A01
:10141E000046756E6352656C656173650046756E48
:10142E00635072657373004170702073656E6473E0
:10143E002070696E673A002C005053324B6579620A
:10144E006F617264457874320049646C652E2E2E7D
:10145E00005B46315D00496E69742050726F64699D
:10146E004B65797320444D2E2E2E005B45385D0062
:10147E00526573756D65205B45345D5B31355D007E
:10148E0052656164792E0041707020676F7420730D
:10149E0074617475733A0041707020676F742070B8
:1014AE006F6E673A0041707020676F74204D49442B
:1014BE00493A0041707020676F74204C4544733A6E
:0214CE0000001C
:107E0000112484B714BE81FFF0D085E080938100F7
:107E100082E08093C00088E18093C10086E0809377
:107E2000C20080E18093C4008EE0C9D0259A86E02C
:107E300020E33CEF91E0309385002093840096BBD3
:107E4000B09BFECF1D9AA8958150A9F7CC24DD24C4
:107E500088248394B5E0AB2EA1E19A2EF3E0BF2EE7
:107E6000A2D0813461F49FD0082FAFD0023811F036
:107E7000013811F484E001C083E08DD089C08234E0
:107E800011F484E103C0853419F485E0A6D080C0E4
:107E9000853579F488D0E82EFF2485D0082F10E0AE
:107EA000102F00270E291F29000F111F8ED06801E7
:107EB0006FC0863521F484E090D080E0DECF843638
:107EC00009F040C070D06FD0082F6DD080E0C81688
:107ED00080E7D80618F4F601B7BEE895C0E0D1E017
:107EE00062D089930C17E1F7F0E0CF16F0E7DF06D8
:107EF00018F0F601B7BEE89568D007B600FCFDCFD4
:107F0000A601A0E0B1E02C9130E011968C91119780
:107F100090E0982F8827822B932B1296FA010C0160
:107F200087BEE89511244E5F5F4FF1E0A038BF0790
:107F300051F7F601A7BEE89507B600FCFDCF97BE46
:107F4000E89526C08437B1F42ED02DD0F82E2BD052
:107F50003CD0F601EF2C8F010F5F1F4F84911BD097
:107F6000EA94F801C1F70894C11CD11CFA94CF0C13
:107F7000D11C0EC0853739F428D08EE10CD085E9AC
:107F80000AD08FE07ACF813511F488E018D01DD067
:107F900080E101D065CF982F8091C00085FFFCCF94
:107FA0009093C60008958091C00087FFFCCF809118
:107FB000C00084FD01C0A8958091C6000895E0E648
:107FC000F0E098E1908380830895EDDF803219F02E
:107FD00088E0F5DFFFCF84E1DECF1F93182FE3DFCA
:107FE0001150E9F7F2DF1F91089580E0E8DFEE27F6
:047FF000FF270994CA
:027FFE00040479
:0400000300007E007B
:00000001FF
